{
  "_format": "hh-sol-artifact-1",
  "contractName": "Counter",
  "sourceName": "contracts/task-1/counter_Olowo.sol",
  "abi": [
    {
      "anonymous": false,
      "inputs": [
        {
          "indexed": false,
          "internalType": "uint256",
          "name": "newValue",
          "type": "uint256"
        }
      ],
      "name": "CountDecreased",
      "type": "event"
    },
    {
      "anonymous": false,
      "inputs": [
        {
          "indexed": false,
          "internalType": "uint256",
          "name": "value",
          "type": "uint256"
        },
        {
          "indexed": false,
          "internalType": "uint256",
          "name": "newTotal",
          "type": "uint256"
        }
      ],
      "name": "CountDecreasedByValue",
      "type": "event"
    },
    {
      "anonymous": false,
      "inputs": [
        {
          "indexed": false,
          "internalType": "uint256",
          "name": "newValue",
          "type": "uint256"
        }
      ],
      "name": "CountIncreased",
      "type": "event"
    },
    {
      "anonymous": false,
      "inputs": [
        {
          "indexed": false,
          "internalType": "uint256",
          "name": "value",
          "type": "uint256"
        },
        {
          "indexed": false,
          "internalType": "uint256",
          "name": "newTotal",
          "type": "uint256"
        }
      ],
      "name": "CountIncreasedByValue",
      "type": "event"
    },
    {
      "anonymous": false,
      "inputs": [
        {
          "indexed": false,
          "internalType": "uint256",
          "name": "newValue",
          "type": "uint256"
        }
      ],
      "name": "CountReset",
      "type": "event"
    },
    {
      "inputs": [],
      "name": "count",
      "outputs": [
        {
          "internalType": "uint256",
          "name": "",
          "type": "uint256"
        }
      ],
      "stateMutability": "view",
      "type": "function"
    },
    {
      "inputs": [],
      "name": "decreaseByOne",
      "outputs": [],
      "stateMutability": "nonpayable",
      "type": "function"
    },
    {
      "inputs": [
        {
          "internalType": "uint256",
          "name": "_value",
          "type": "uint256"
        }
      ],
      "name": "decreaseByValue",
      "outputs": [],
      "stateMutability": "nonpayable",
      "type": "function"
    },
    {
      "inputs": [],
      "name": "getCount",
      "outputs": [
        {
          "internalType": "uint256",
          "name": "",
          "type": "uint256"
        }
      ],
      "stateMutability": "view",
      "type": "function"
    },
    {
      "inputs": [],
      "name": "getMaxUint256",
      "outputs": [
        {
          "internalType": "uint256",
          "name": "",
          "type": "uint256"
        }
      ],
      "stateMutability": "pure",
      "type": "function"
    },
    {
      "inputs": [],
      "name": "increaseByOne",
      "outputs": [],
      "stateMutability": "nonpayable",
      "type": "function"
    },
    {
      "inputs": [
        {
          "internalType": "uint256",
          "name": "_value",
          "type": "uint256"
        }
      ],
      "name": "increaseByValue",
      "outputs": [],
      "stateMutability": "nonpayable",
      "type": "function"
    },
    {
      "inputs": [],
      "name": "resetCount",
      "outputs": [],
      "stateMutability": "nonpayable",
      "type": "function"
    }
  ],
  "bytecode": "0x608060405260008055348015601357600080fd5b5061072b806100236000396000f3fe608060405234801561001057600080fd5b50600436106100885760003560e01c8063974ba1e21161005b578063974ba1e2146100ed578063a87d942c146100f7578063d3c60c7a14610115578063fd8952921461013357610088565b806306661abd1461008d57806334fad97d146100ab57806364cf7d4a146100c757806393158b0e146100e3575b600080fd5b61009561013d565b6040516100a29190610462565b60405180910390f35b6100c560048036038101906100c091906104ae565b610143565b005b6100e160048036038101906100dc91906104ae565b610203565b005b6100eb6102ab565b005b6100f5610341565b005b6100ff6103e4565b60405161010c9190610462565b60405180910390f35b61011d6103ed565b60405161012a9190610462565b60405180910390f35b61013b6103f9565b005b60005481565b600061014d6103ed565b90506000821161015c57600080fd5b808260005461016b919061050a565b11156101ac576040517f08c379a00000000000000000000000000000000000000000000000000000000081526004016101a39061059b565b60405180910390fd5b816000808282546101bd919061050a565b925050819055507fcee47bca238afab5c54dc427f12dbdc26b928ed528758f358419be71414e3bd7826000546040516101f79291906105bb565b60405180910390a15050565b6000811161021057600080fd5b806000541015610255576040517f08c379a000000000000000000000000000000000000000000000000000000000815260040161024c90610630565b60405180910390fd5b806000808282546102669190610650565b925050819055507fb8f2827d0919f4cf2ae6c752d20c1b4931799fed29b99d74e9d43f871e4c10e7816000546040516102a09291906105bb565b60405180910390a150565b60008054116102ef576040517f08c379a00000000000000000000000000000000000000000000000000000000081526004016102e690610630565b60405180910390fd5b60008081548092919061030190610684565b91905055507f53a71f16f53e57416424d0d18ccbd98504d42a6f98fe47b09772d8f357c620ce6000546040516103379190610462565b60405180910390a1565b600061034b6103ed565b90508060005410610391576040517f08c379a00000000000000000000000000000000000000000000000000000000081526004016103889061059b565b60405180910390fd5b6000808154809291906103a3906106ad565b91905055507f7ca2ca9527391044455246730762df008a6b47bbdb5d37a890ef78394535c0406000546040516103d99190610462565b60405180910390a150565b60008054905090565b60006001600003905090565b600080541161040757600080fd5b600080819055507f5b9d10f4ee515225030c54621fd1c542cbe568fa14df6e019aab2bc3f022397760005460405161043f9190610462565b60405180910390a1565b6000819050919050565b61045c81610449565b82525050565b60006020820190506104776000830184610453565b92915050565b600080fd5b61048b81610449565b811461049657600080fd5b50565b6000813590506104a881610482565b92915050565b6000602082840312156104c4576104c361047d565b5b60006104d284828501610499565b91505092915050565b7f4e487b7100000000000000000000000000000000000000000000000000000000600052601160045260246000fd5b600061051582610449565b915061052083610449565b9250828201905080821115610538576105376104db565b5b92915050565b600082825260208201905092915050565b7f63616e6e6f7420696e637265617365206265796f6e64206d61782075696e7400600082015250565b6000610585601f8361053e565b91506105908261054f565b602082019050919050565b600060208201905081810360008301526105b481610578565b9050919050565b60006040820190506105d06000830185610453565b6105dd6020830184610453565b9392505050565b7f63616e6e6f742064656372656173652062656c6f772030000000000000000000600082015250565b600061061a60178361053e565b9150610625826105e4565b602082019050919050565b600060208201905081810360008301526106498161060d565b9050919050565b600061065b82610449565b915061066683610449565b925082820390508181111561067e5761067d6104db565b5b92915050565b600061068f82610449565b9150600082036106a2576106a16104db565b5b600182039050919050565b60006106b882610449565b91507fffffffffffffffffffffffffffffffffffffffffffffffffffffffffffffffff82036106ea576106e96104db565b5b60018201905091905056fea2646970667358221220614916c299e1077f7d797de65b98a9eaeade83cc1adb73b1d9e3844c60e9a57764736f6c63430008190033",
  "linkReferences": {},
  "deployedLinkReferences": {}
}