{
  "_format": "hh-sol-artifact-1",
  "contractName": "Students",
  "sourceName": "contracts/task-2/studentRegistry_Olowo.sol",
  "abi": [
    {
      "inputs": [],
      "stateMutability": "nonpayable",
      "type": "constructor"
    },
    {
      "anonymous": false,
      "inputs": [
        {
          "indexed": true,
          "internalType": "address",
          "name": "student",
          "type": "address"
        },
        {
          "indexed": false,
          "internalType": "enum Students.Attendance",
          "name": "attendance",
          "type": "uint8"
        }
      ],
      "name": "AttendanceStatus",
      "type": "event"
    },
    {
      "anonymous": false,
      "inputs": [
        {
          "indexed": false,
          "internalType": "address",
          "name": "student",
          "type": "address"
        },
        {
          "indexed": false,
          "internalType": "string",
          "name": "interest",
          "type": "string"
        }
      ],
      "name": "InterestAdded",
      "type": "event"
    },
    {
      "anonymous": false,
      "inputs": [
        {
          "indexed": false,
          "internalType": "address",
          "name": "student",
          "type": "address"
        },
        {
          "indexed": false,
          "internalType": "string",
          "name": "interest",
          "type": "string"
        }
      ],
      "name": "InterestRemoved",
      "type": "event"
    },
    {
      "anonymous": false,
      "inputs": [
        {
          "indexed": true,
          "internalType": "address",
          "name": "previousOwner",
          "type": "address"
        },
        {
          "indexed": true,
          "internalType": "address",
          "name": "newOwner",
          "type": "address"
        }
      ],
      "name": "OwnershipTransferred",
      "type": "event"
    },
    {
      "anonymous": false,
      "inputs": [
        {
          "indexed": false,
          "internalType": "string",
          "name": "name",
          "type": "string"
        },
        {
          "indexed": false,
          "internalType": "uint256",
          "name": "attendance",
          "type": "uint256"
        },
        {
          "indexed": false,
          "internalType": "string[]",
          "name": "interest",
          "type": "string[]"
        }
      ],
      "name": "StudentCreated",
      "type": "event"
    },
    {
      "inputs": [
        {
          "internalType": "address",
          "name": "_address",
          "type": "address"
        },
        {
          "internalType": "string",
          "name": "_interest",
          "type": "string"
        }
      ],
      "name": "addInterest",
      "outputs": [],
      "stateMutability": "nonpayable",
      "type": "function"
    },
    {
      "inputs": [
        {
          "internalType": "address",
          "name": "_address",
          "type": "address"
        }
      ],
      "name": "getStudentAttendance",
      "outputs": [
        {
          "internalType": "enum Students.Attendance",
          "name": "",
          "type": "uint8"
        }
      ],
      "stateMutability": "view",
      "type": "function"
    },
    {
      "inputs": [
        {
          "internalType": "address",
          "name": "_address",
          "type": "address"
        }
      ],
      "name": "getStudentInterests",
      "outputs": [
        {
          "internalType": "string[]",
          "name": "",
          "type": "string[]"
        }
      ],
      "stateMutability": "view",
      "type": "function"
    },
    {
      "inputs": [
        {
          "internalType": "address",
          "name": "_address",
          "type": "address"
        }
      ],
      "name": "getStudentName",
      "outputs": [
        {
          "internalType": "string",
          "name": "",
          "type": "string"
        }
      ],
      "stateMutability": "view",
      "type": "function"
    },
    {
      "inputs": [
        {
          "internalType": "address",
          "name": "_address",
          "type": "address"
        },
        {
          "internalType": "enum Students.Attendance",
          "name": "_attendance",
          "type": "uint8"
        }
      ],
      "name": "markAttendance",
      "outputs": [],
      "stateMutability": "nonpayable",
      "type": "function"
    },
    {
      "inputs": [],
      "name": "owner",
      "outputs": [
        {
          "internalType": "address",
          "name": "",
          "type": "address"
        }
      ],
      "stateMutability": "view",
      "type": "function"
    },
    {
      "inputs": [
        {
          "internalType": "string",
          "name": "_name",
          "type": "string"
        },
        {
          "internalType": "string",
          "name": "_interest1",
          "type": "string"
        },
        {
          "internalType": "string",
          "name": "_interest2",
          "type": "string"
        },
        {
          "internalType": "string",
          "name": "_interest3",
          "type": "string"
        },
        {
          "internalType": "string",
          "name": "_interest4",
          "type": "string"
        },
        {
          "internalType": "string",
          "name": "_interest5",
          "type": "string"
        }
      ],
      "name": "registerNewStudent",
      "outputs": [],
      "stateMutability": "nonpayable",
      "type": "function"
    },
    {
      "inputs": [],
      "name": "registerStudent",
      "outputs": [],
      "stateMutability": "nonpayable",
      "type": "function"
    },
    {
      "inputs": [
        {
          "internalType": "address",
          "name": "_address",
          "type": "address"
        },
        {
          "internalType": "string",
          "name": "_interest",
          "type": "string"
        }
      ],
      "name": "removeInterest",
      "outputs": [],
      "stateMutability": "nonpayable",
      "type": "function"
    },
    {
      "inputs": [
        {
          "internalType": "address",
          "name": "",
          "type": "address"
        }
      ],
      "name": "studentMap",
      "outputs": [
        {
          "internalType": "string",
          "name": "name",
          "type": "string"
        },
        {
          "internalType": "enum Students.Attendance",
          "name": "attendance",
          "type": "uint8"
        }
      ],
      "stateMutability": "view",
      "type": "function"
    },
    {
      "inputs": [
        {
          "internalType": "address",
          "name": "_newOwner",
          "type": "address"
        }
      ],
      "name": "transferOwnership",
      "outputs": [],
      "stateMutability": "nonpayable",
      "type": "function"
    }
  ],
  "bytecode": "0x6080604052348015600f57600080fd5b50336000806101000a81548173ffffffffffffffffffffffffffffffffffffffff021916908373ffffffffffffffffffffffffffffffffffffffff160217905550612e348061005f6000396000f3fe608060405234801561001057600080fd5b50600436106100a95760003560e01c80638da5cb5b116100715780638da5cb5b14610165578063a5cbfb9f14610183578063ab28e380146101b3578063d4d3bc6d146101cf578063df575c38146101eb578063f2fde38b14610207576100a9565b806314e1bf02146100ae5780632e0308fb146100de578063429796581461010e5780634337049114610118578063658d43a514610134575b600080fd5b6100c860048036038101906100c39190611c43565b610223565b6040516100d59190611ce7565b60405180910390f35b6100f860048036038101906100f39190611c43565b61030f565b6040516101059190611d92565b60405180910390f35b610116610476565b005b610132600480360381019061012d9190611ee9565b610a59565b005b61014e60048036038101906101499190611c43565b610cfb565b60405161015c929190611f45565b60405180910390f35b61016d610db4565b60405161017a9190611f84565b60405180910390f35b61019d60048036038101906101989190611c43565b610dd8565b6040516101aa91906120ab565b60405180910390f35b6101cd60048036038101906101c891906120cd565b610f86565b005b6101e960048036038101906101e49190611ee9565b6114bb565b005b61020560048036038101906102009190612227565b61186b565b005b610221600480360381019061021c9190611c43565b6119ba565b005b6000816000600160008373ffffffffffffffffffffffffffffffffffffffff1673ffffffffffffffffffffffffffffffffffffffff168152602001908152602001600020600001805461027590612296565b9050116102b7576040517f08c379a00000000000000000000000000000000000000000000000000000000081526004016102ae90612313565b60405180910390fd5b600160008473ffffffffffffffffffffffffffffffffffffffff1673ffffffffffffffffffffffffffffffffffffffff16815260200190815260200160002060010160009054906101000a900460ff16915050919050565b6060816000600160008373ffffffffffffffffffffffffffffffffffffffff1673ffffffffffffffffffffffffffffffffffffffff168152602001908152602001600020600001805461036190612296565b9050116103a3576040517f08c379a000000000000000000000000000000000000000000000000000000000815260040161039a90612313565b60405180910390fd5b600160008473ffffffffffffffffffffffffffffffffffffffff1673ffffffffffffffffffffffffffffffffffffffff16815260200190815260200160002060000180546103f090612296565b80601f016020809104026020016040519081016040528092919081815260200182805461041c90612296565b80156104695780601f1061043e57610100808354040283529160200191610469565b820191906000526020600020905b81548152906001019060200180831161044c57829003601f168201915b5050505050915050919050565b6000600160003373ffffffffffffffffffffffffffffffffffffffff1673ffffffffffffffffffffffffffffffffffffffff16815260200190815260200160002060000180546104c590612296565b905014610507576040517f08c379a00000000000000000000000000000000000000000000000000000000081526004016104fe9061237f565b60405180910390fd5b6040518060400160405280600581526020017f4461726579000000000000000000000000000000000000000000000000000000815250600160003373ffffffffffffffffffffffffffffffffffffffff1673ffffffffffffffffffffffffffffffffffffffff168152602001908152602001600020600001908161058b9190612555565b5060018060003373ffffffffffffffffffffffffffffffffffffffff1673ffffffffffffffffffffffffffffffffffffffff16815260200190815260200160002060010160006101000a81548160ff021916908360018111156105f1576105f0611c70565b5b0217905550600160003373ffffffffffffffffffffffffffffffffffffffff1673ffffffffffffffffffffffffffffffffffffffff16815260200190815260200160002060020180600181540180825580915050600190039060005260206000200160006040518060400160405280600481526020017f67616d65000000000000000000000000000000000000000000000000000000008152509091909150908161069c9190612555565b50600160003373ffffffffffffffffffffffffffffffffffffffff1673ffffffffffffffffffffffffffffffffffffffff16815260200190815260200160002060020180600181540180825580915050600190039060005260206000200160006040518060400160405280600881526020017f666f6f7462616c6c000000000000000000000000000000000000000000000000815250909190915090816107439190612555565b50600160003373ffffffffffffffffffffffffffffffffffffffff1673ffffffffffffffffffffffffffffffffffffffff16815260200190815260200160002060020180600181540180825580915050600190039060005260206000200160006040518060400160405280600481526020017f6669666100000000000000000000000000000000000000000000000000000000815250909190915090816107ea9190612555565b50600160003373ffffffffffffffffffffffffffffffffffffffff1673ffffffffffffffffffffffffffffffffffffffff16815260200190815260200160002060020180600181540180825580915050600190039060005260206000200160006040518060400160405280600781526020017f72656164696e6700000000000000000000000000000000000000000000000000815250909190915090816108919190612555565b50600160003373ffffffffffffffffffffffffffffffffffffffff1673ffffffffffffffffffffffffffffffffffffffff16815260200190815260200160002060020180600181540180825580915050600190039060005260206000200160006040518060400160405280600681526020017f636f64696e670000000000000000000000000000000000000000000000000000815250909190915090816109389190612555565b507fafda794e58fcc05bfb43bb6b874b93ee5e603b957eb17d2d5fd995755e717a48600160003373ffffffffffffffffffffffffffffffffffffffff1673ffffffffffffffffffffffffffffffffffffffff168152602001908152602001600020600001600160003373ffffffffffffffffffffffffffffffffffffffff1673ffffffffffffffffffffffffffffffffffffffff16815260200190815260200160002060010160009054906101000a900460ff1660018111156109fe576109fd611c70565b5b600160003373ffffffffffffffffffffffffffffffffffffffff1673ffffffffffffffffffffffffffffffffffffffff168152602001908152602001600020600201604051610a4f939291906127f3565b60405180910390a1565b816000600160008373ffffffffffffffffffffffffffffffffffffffff1673ffffffffffffffffffffffffffffffffffffffff1681526020019081526020016000206000018054610aa990612296565b905011610aeb576040517f08c379a0000000000000000000000000000000000000000000000000000000008152600401610ae290612313565b60405180910390fd5b6000825110610b2f576040517f08c379a0000000000000000000000000000000000000000000000000000000008152600401610b2690612884565b60405180910390fd5b60005b600160008573ffffffffffffffffffffffffffffffffffffffff1673ffffffffffffffffffffffffffffffffffffffff16815260200190815260200160002060020180549050811015610c47578280519060200120600160008673ffffffffffffffffffffffffffffffffffffffff1673ffffffffffffffffffffffffffffffffffffffff1681526020019081526020016000206002018281548110610bdb57610bda6128a4565b5b90600052602060002001604051610bf29190612976565b604051809103902003610c3a576040517f08c379a0000000000000000000000000000000000000000000000000000000008152600401610c31906129d9565b60405180910390fd5b8080600101915050610b32565b50600160008473ffffffffffffffffffffffffffffffffffffffff1673ffffffffffffffffffffffffffffffffffffffff16815260200190815260200160002060020182908060018154018082558091505060019003906000526020600020016000909190919091509081610cbc9190612555565b507f07a750769607a6a13fed69f3e25280730f9043be3e0086d7c3225ea9b9ef65dc8383604051610cee9291906129f9565b60405180910390a1505050565b6001602052806000526040600020600091509050806000018054610d1e90612296565b80601f0160208091040260200160405190810160405280929190818152602001828054610d4a90612296565b8015610d975780601f10610d6c57610100808354040283529160200191610d97565b820191906000526020600020905b815481529060010190602001808311610d7a57829003601f168201915b5050505050908060010160009054906101000a900460ff16905082565b60008054906101000a900473ffffffffffffffffffffffffffffffffffffffff1681565b6060816000600160008373ffffffffffffffffffffffffffffffffffffffff1673ffffffffffffffffffffffffffffffffffffffff1681526020019081526020016000206000018054610e2a90612296565b905011610e6c576040517f08c379a0000000000000000000000000000000000000000000000000000000008152600401610e6390612313565b60405180910390fd5b600160008473ffffffffffffffffffffffffffffffffffffffff1673ffffffffffffffffffffffffffffffffffffffff168152602001908152602001600020600201805480602002602001604051908101604052809291908181526020016000905b82821015610f7a578382906000526020600020018054610eed90612296565b80601f0160208091040260200160405190810160405280929190818152602001828054610f1990612296565b8015610f665780601f10610f3b57610100808354040283529160200191610f66565b820191906000526020600020905b815481529060010190602001808311610f4957829003601f168201915b505050505081526020019060010190610ece565b50505050915050919050565b6000600160003373ffffffffffffffffffffffffffffffffffffffff1673ffffffffffffffffffffffffffffffffffffffff1681526020019081526020016000206000018054610fd590612296565b905014611017576040517f08c379a000000000000000000000000000000000000000000000000000000000815260040161100e9061237f565b60405180910390fd5b600086511161105b576040517f08c379a000000000000000000000000000000000000000000000000000000000815260040161105290612a75565b60405180910390fd5b85600160003373ffffffffffffffffffffffffffffffffffffffff1673ffffffffffffffffffffffffffffffffffffffff16815260200190815260200160002060000190816110aa9190612555565b5060018060003373ffffffffffffffffffffffffffffffffffffffff1673ffffffffffffffffffffffffffffffffffffffff16815260200190815260200160002060010160006101000a81548160ff021916908360018111156111105761110f611c70565b5b021790555060008551111561119557600160003373ffffffffffffffffffffffffffffffffffffffff1673ffffffffffffffffffffffffffffffffffffffff168152602001908152602001600020600201859080600181540180825580915050600190039060005260206000200160009091909190915090816111939190612555565b505b60008451111561121557600160003373ffffffffffffffffffffffffffffffffffffffff1673ffffffffffffffffffffffffffffffffffffffff168152602001908152602001600020600201849080600181540180825580915050600190039060005260206000200160009091909190915090816112139190612555565b505b60008351111561129557600160003373ffffffffffffffffffffffffffffffffffffffff1673ffffffffffffffffffffffffffffffffffffffff168152602001908152602001600020600201839080600181540180825580915050600190039060005260206000200160009091909190915090816112939190612555565b505b60008251111561131557600160003373ffffffffffffffffffffffffffffffffffffffff1673ffffffffffffffffffffffffffffffffffffffff168152602001908152602001600020600201829080600181540180825580915050600190039060005260206000200160009091909190915090816113139190612555565b505b60008151111561139557600160003373ffffffffffffffffffffffffffffffffffffffff1673ffffffffffffffffffffffffffffffffffffffff168152602001908152602001600020600201819080600181540180825580915050600190039060005260206000200160009091909190915090816113939190612555565b505b7fafda794e58fcc05bfb43bb6b874b93ee5e603b957eb17d2d5fd995755e717a48600160003373ffffffffffffffffffffffffffffffffffffffff1673ffffffffffffffffffffffffffffffffffffffff168152602001908152602001600020600001600160003373ffffffffffffffffffffffffffffffffffffffff1673ffffffffffffffffffffffffffffffffffffffff16815260200190815260200160002060010160009054906101000a900460ff16600181111561145a57611459611c70565b5b600160003373ffffffffffffffffffffffffffffffffffffffff1673ffffffffffffffffffffffffffffffffffffffff1681526020019081526020016000206002016040516114ab939291906127f3565b60405180910390a1505050505050565b816000600160008373ffffffffffffffffffffffffffffffffffffffff1673ffffffffffffffffffffffffffffffffffffffff168152602001908152602001600020600001805461150b90612296565b90501161154d576040517f08c379a000000000000000000000000000000000000000000000000000000000815260040161154490612313565b60405180910390fd5b6000825111611591576040517f08c379a000000000000000000000000000000000000000000000000000000000815260040161158890612884565b60405180910390fd5b6000600160008573ffffffffffffffffffffffffffffffffffffffff1673ffffffffffffffffffffffffffffffffffffffff1681526020019081526020016000206002018054905090506000805b82811015611823578480519060200120600160008873ffffffffffffffffffffffffffffffffffffffff1673ffffffffffffffffffffffffffffffffffffffff1681526020019081526020016000206002018281548110611643576116426128a4565b5b9060005260206000200160405161165a9190612976565b604051809103902003611816576001915060008190505b60018461167e9190612ac4565b81101561176757600160008873ffffffffffffffffffffffffffffffffffffffff1673ffffffffffffffffffffffffffffffffffffffff1681526020019081526020016000206002016001826116d49190612af8565b815481106116e5576116e46128a4565b5b90600052602060002001600160008973ffffffffffffffffffffffffffffffffffffffff1673ffffffffffffffffffffffffffffffffffffffff1681526020019081526020016000206002018281548110611743576117426128a4565b5b9060005260206000200190816117599190612b57565b508080600101915050611671565b50600160008773ffffffffffffffffffffffffffffffffffffffff1673ffffffffffffffffffffffffffffffffffffffff1681526020019081526020016000206002018054806117ba576117b9612c3f565b5b6001900381819060005260206000200160006117d69190611b74565b90557fed205b231243f2d4df0d6ee9d803a6508a6857f91f827ca60efaf8314156afc686866040516118099291906129f9565b60405180910390a1611823565b80806001019150506115df565b5080611864576040517f08c379a000000000000000000000000000000000000000000000000000000000815260040161185b90612cba565b60405180910390fd5b5050505050565b816000600160008373ffffffffffffffffffffffffffffffffffffffff1673ffffffffffffffffffffffffffffffffffffffff16815260200190815260200160002060000180546118bb90612296565b9050116118fd576040517f08c379a00000000000000000000000000000000000000000000000000000000081526004016118f490612313565b60405180910390fd5b81600160008573ffffffffffffffffffffffffffffffffffffffff1673ffffffffffffffffffffffffffffffffffffffff16815260200190815260200160002060010160006101000a81548160ff0219169083600181111561196257611961611c70565b5b02179055508273ffffffffffffffffffffffffffffffffffffffff167f54fec753fc0c7580ee68fe2c65b3b694afc512c101be2b6df1a02d4982ca56e7836040516119ad9190611ce7565b60405180910390a2505050565b60008054906101000a900473ffffffffffffffffffffffffffffffffffffffff1673ffffffffffffffffffffffffffffffffffffffff163373ffffffffffffffffffffffffffffffffffffffff1614611a48576040517f08c379a0000000000000000000000000000000000000000000000000000000008152600401611a3f90612d4c565b60405180910390fd5b600073ffffffffffffffffffffffffffffffffffffffff168173ffffffffffffffffffffffffffffffffffffffff1603611ab7576040517f08c379a0000000000000000000000000000000000000000000000000000000008152600401611aae90612dde565b60405180910390fd5b8073ffffffffffffffffffffffffffffffffffffffff1660008054906101000a900473ffffffffffffffffffffffffffffffffffffffff1673ffffffffffffffffffffffffffffffffffffffff167f8be0079c531659141344cd1fd0a4f28419497f9722a3daafe3b4186f6b6457e060405160405180910390a3806000806101000a81548173ffffffffffffffffffffffffffffffffffffffff021916908373ffffffffffffffffffffffffffffffffffffffff16021790555050565b508054611b8090612296565b6000825580601f10611b925750611bb1565b601f016020900490600052602060002090810190611bb09190611bb4565b5b50565b5b80821115611bcd576000816000905550600101611bb5565b5090565b6000604051905090565b600080fd5b600080fd5b600073ffffffffffffffffffffffffffffffffffffffff82169050919050565b6000611c1082611be5565b9050919050565b611c2081611c05565b8114611c2b57600080fd5b50565b600081359050611c3d81611c17565b92915050565b600060208284031215611c5957611c58611bdb565b5b6000611c6784828501611c2e565b91505092915050565b7f4e487b7100000000000000000000000000000000000000000000000000000000600052602160045260246000fd5b60028110611cb057611caf611c70565b5b50565b6000819050611cc182611c9f565b919050565b6000611cd182611cb3565b9050919050565b611ce181611cc6565b82525050565b6000602082019050611cfc6000830184611cd8565b92915050565b600081519050919050565b600082825260208201905092915050565b60005b83811015611d3c578082015181840152602081019050611d21565b60008484015250505050565b6000601f19601f8301169050919050565b6000611d6482611d02565b611d6e8185611d0d565b9350611d7e818560208601611d1e565b611d8781611d48565b840191505092915050565b60006020820190508181036000830152611dac8184611d59565b905092915050565b600080fd5b600080fd5b7f4e487b7100000000000000000000000000000000000000000000000000000000600052604160045260246000fd5b611df682611d48565b810181811067ffffffffffffffff82111715611e1557611e14611dbe565b5b80604052505050565b6000611e28611bd1565b9050611e348282611ded565b919050565b600067ffffffffffffffff821115611e5457611e53611dbe565b5b611e5d82611d48565b9050602081019050919050565b82818337600083830152505050565b6000611e8c611e8784611e39565b611e1e565b905082815260208101848484011115611ea857611ea7611db9565b5b611eb3848285611e6a565b509392505050565b600082601f830112611ed057611ecf611db4565b5b8135611ee0848260208601611e79565b91505092915050565b60008060408385031215611f0057611eff611bdb565b5b6000611f0e85828601611c2e565b925050602083013567ffffffffffffffff811115611f2f57611f2e611be0565b5b611f3b85828601611ebb565b9150509250929050565b60006040820190508181036000830152611f5f8185611d59565b9050611f6e6020830184611cd8565b9392505050565b611f7e81611c05565b82525050565b6000602082019050611f996000830184611f75565b92915050565b600081519050919050565b600082825260208201905092915050565b6000819050602082019050919050565b600082825260208201905092915050565b6000611fe782611d02565b611ff18185611fcb565b9350612001818560208601611d1e565b61200a81611d48565b840191505092915050565b60006120218383611fdc565b905092915050565b6000602082019050919050565b600061204182611f9f565b61204b8185611faa565b93508360208202850161205d85611fbb565b8060005b85811015612099578484038952815161207a8582612015565b945061208583612029565b925060208a01995050600181019050612061565b50829750879550505050505092915050565b600060208201905081810360008301526120c58184612036565b905092915050565b60008060008060008060c087890312156120ea576120e9611bdb565b5b600087013567ffffffffffffffff81111561210857612107611be0565b5b61211489828a01611ebb565b965050602087013567ffffffffffffffff81111561213557612134611be0565b5b61214189828a01611ebb565b955050604087013567ffffffffffffffff81111561216257612161611be0565b5b61216e89828a01611ebb565b945050606087013567ffffffffffffffff81111561218f5761218e611be0565b5b61219b89828a01611ebb565b935050608087013567ffffffffffffffff8111156121bc576121bb611be0565b5b6121c889828a01611ebb565b92505060a087013567ffffffffffffffff8111156121e9576121e8611be0565b5b6121f589828a01611ebb565b9150509295509295509295565b6002811061220f57600080fd5b50565b60008135905061222181612202565b92915050565b6000806040838503121561223e5761223d611bdb565b5b600061224c85828601611c2e565b925050602061225d85828601612212565b9150509250929050565b7f4e487b7100000000000000000000000000000000000000000000000000000000600052602260045260246000fd5b600060028204905060018216806122ae57607f821691505b6020821081036122c1576122c0612267565b5b50919050565b7f53747564656e74206973206e6f74207265676973746572656421000000000000600082015250565b60006122fd601a83611d0d565b9150612308826122c7565b602082019050919050565b6000602082019050818103600083015261232c816122f0565b9050919050565b7f4164647265737320616c72656164792072656769737465726564210000000000600082015250565b6000612369601b83611d0d565b915061237482612333565b602082019050919050565b600060208201905081810360008301526123988161235c565b9050919050565b60008190508160005260206000209050919050565b60006020601f8301049050919050565b600082821b905092915050565b6000600883026124017fffffffffffffffffffffffffffffffffffffffffffffffffffffffffffffffff826123c4565b61240b86836123c4565b95508019841693508086168417925050509392505050565b6000819050919050565b6000819050919050565b600061245261244d61244884612423565b61242d565b612423565b9050919050565b6000819050919050565b61246c83612437565b61248061247882612459565b8484546123d1565b825550505050565b600090565b612495612488565b6124a0818484612463565b505050565b5b818110156124c4576124b960008261248d565b6001810190506124a6565b5050565b601f821115612509576124da8161239f565b6124e3846123b4565b810160208510156124f2578190505b6125066124fe856123b4565b8301826124a5565b50505b505050565b600082821c905092915050565b600061252c6000198460080261250e565b1980831691505092915050565b6000612545838361251b565b9150826002028217905092915050565b61255e82611d02565b67ffffffffffffffff81111561257757612576611dbe565b5b6125818254612296565b61258c8282856124c8565b600060209050601f8311600181146125bf57600084156125ad578287015190505b6125b78582612539565b86555061261f565b601f1984166125cd8661239f565b60005b828110156125f5578489015182556001820191506020850194506020810190506125d0565b86831015612612578489015161260e601f89168261251b565b8355505b6001600288020188555050505b505050505050565b6000815461263481612296565b61263e8186611d0d565b94506001821660008114612659576001811461266f576126a2565b60ff1983168652811515602002860193506126a2565b6126788561239f565b60005b8381101561269a5781548189015260018201915060208101905061267b565b808801955050505b50505092915050565b6126b481612423565b82525050565b600081549050919050565b60008190508160005260206000209050919050565b600081546126e781612296565b6126f18186611fcb565b9450600182166000811461270c576001811461272257612755565b60ff198316865281151560200286019350612755565b61272b8561239f565b60005b8381101561274d5781548189015260018201915060208101905061272e565b808801955050505b50505092915050565b600061276a83836126da565b905092915050565b6000600182019050919050565b600061278a826126ba565b6127948185611faa565b9350836020820285016127a6856126c5565b8060005b858110156127e1578484038952816127c2858261275e565b94506127cd83612772565b925060208a019950506001810190506127aa565b50829750879550505050505092915050565b6000606082019050818103600083015261280d8186612627565b905061281c60208301856126ab565b818103604083015261282e818461277f565b9050949350505050565b7f496e7465726573742063616e6e6f7420626520656d7074792e00000000000000600082015250565b600061286e601983611d0d565b915061287982612838565b602082019050919050565b6000602082019050818103600083015261289d81612861565b9050919050565b7f4e487b7100000000000000000000000000000000000000000000000000000000600052603260045260246000fd5b600081905092915050565b60008190508160005260206000209050919050565b6000815461290081612296565b61290a81866128d3565b94506001821660008114612925576001811461293a5761296d565b60ff198316865281151582028601935061296d565b612943856128de565b60005b8381101561296557815481890152600182019150602081019050612946565b838801955050505b50505092915050565b600061298282846128f3565b915081905092915050565b7f496e74657265737420616c7265616479206578697374732e0000000000000000600082015250565b60006129c3601883611d0d565b91506129ce8261298d565b602082019050919050565b600060208201905081810360008301526129f2816129b6565b9050919050565b6000604082019050612a0e6000830185611f75565b8181036020830152612a208184611d59565b90509392505050565b7f4e616d652063616e6e6f7420626520656d707479000000000000000000000000600082015250565b6000612a5f601483611d0d565b9150612a6a82612a29565b602082019050919050565b60006020820190508181036000830152612a8e81612a52565b9050919050565b7f4e487b7100000000000000000000000000000000000000000000000000000000600052601160045260246000fd5b6000612acf82612423565b9150612ada83612423565b9250828203905081811115612af257612af1612a95565b5b92915050565b6000612b0382612423565b9150612b0e83612423565b9250828201905080821115612b2657612b25612a95565b5b92915050565b600081549050612b3b81612296565b9050919050565b60008190508160005260206000209050919050565b818103612b65575050612c3d565b612b6e82612b2c565b67ffffffffffffffff811115612b8757612b86611dbe565b5b612b918254612296565b612b9c8282856124c8565b6000601f831160018114612bcb5760008415612bb9578287015490505b612bc38582612539565b865550612c36565b601f198416612bd987612b42565b9650612be48661239f565b60005b82811015612c0c57848901548255600182019150600185019450602081019050612be7565b86831015612c295784890154612c25601f89168261251b565b8355505b6001600288020188555050505b5050505050505b565b7f4e487b7100000000000000000000000000000000000000000000000000000000600052603160045260246000fd5b7f496e746572657374206e6f7420666f756e642e00000000000000000000000000600082015250565b6000612ca4601383611d0d565b9150612caf82612c6e565b602082019050919050565b60006020820190508181036000830152612cd381612c97565b9050919050565b7f4f6e6c792074686520636f6e7472616374206f776e65722063616e207065726660008201527f6f726d207468697320616374696f6e0000000000000000000000000000000000602082015250565b6000612d36602f83611d0d565b9150612d4182612cda565b604082019050919050565b60006020820190508181036000830152612d6581612d29565b9050919050565b7f4e6577206f776e65722063616e6e6f7420626520746865207a65726f2061646460008201527f7265737300000000000000000000000000000000000000000000000000000000602082015250565b6000612dc8602483611d0d565b9150612dd382612d6c565b604082019050919050565b60006020820190508181036000830152612df781612dbb565b905091905056fea264697066735822122013dcfe402d3e0c26e0daaf2da8b7c3f0be7fbecc17e8b32e762608b8fa0dd42064736f6c63430008190033",
  "linkReferences": {},
  "deployedLinkReferences": {}
}