{
  "_format": "hh-sol-artifact-1",
  "contractName": "ControlFlow",
  "sourceName": "contracts/ControlFlow.yourname.sol",
  "abi": [
    {
      "inputs": [
        {
          "internalType": "uint256",
          "name": "_limit",
          "type": "uint256"
        }
      ],
      "name": "breakContinue",
      "outputs": [
        {
          "internalType": "uint256",
          "name": "",
          "type": "uint256"
        }
      ],
      "stateMutability": "pure",
      "type": "function"
    },
    {
      "inputs": [
        {
          "internalType": "uint256",
          "name": "_n",
          "type": "uint256"
        }
      ],
      "name": "doWhileLoop",
      "outputs": [
        {
          "internalType": "uint256",
          "name": "",
          "type": "uint256"
        }
      ],
      "stateMutability": "pure",
      "type": "function"
    },
    {
      "inputs": [
        {
          "internalType": "uint256",
          "name": "_n",
          "type": "uint256"
        }
      ],
      "name": "forLoop",
      "outputs": [
        {
          "internalType": "uint256",
          "name": "",
          "type": "uint256"
        }
      ],
      "stateMutability": "pure",
      "type": "function"
    },
    {
      "inputs": [
        {
          "internalType": "int256",
          "name": "_x",
          "type": "int256"
        }
      ],
      "name": "ifElseStatement",
      "outputs": [
        {
          "internalType": "bool",
          "name": "",
          "type": "bool"
        }
      ],
      "stateMutability": "pure",
      "type": "function"
    },
    {
      "inputs": [
        {
          "internalType": "uint256",
          "name": "_rows",
          "type": "uint256"
        },
        {
          "internalType": "uint256",
          "name": "_cols",
          "type": "uint256"
        }
      ],
      "name": "nestedForLoop",
      "outputs": [
        {
          "internalType": "uint256[2][2]",
          "name": "",
          "type": "uint256[2][2]"
        }
      ],
      "stateMutability": "pure",
      "type": "function"
    },
    {
      "inputs": [
        {
          "internalType": "int256",
          "name": "_x",
          "type": "int256"
        }
      ],
      "name": "ternaryOperator",
      "outputs": [
        {
          "internalType": "string",
          "name": "",
          "type": "string"
        }
      ],
      "stateMutability": "pure",
      "type": "function"
    },
    {
      "inputs": [
        {
          "internalType": "uint256",
          "name": "_n",
          "type": "uint256"
        }
      ],
      "name": "whileLoop",
      "outputs": [
        {
          "internalType": "uint256",
          "name": "",
          "type": "uint256"
        }
      ],
      "stateMutability": "pure",
      "type": "function"
    }
  ],
  "bytecode": "0x6080604052348015600f57600080fd5b50610a538061001f6000396000f3fe608060405234801561001057600080fd5b506004361061007d5760003560e01c80638719814c1161005b5780638719814c14610112578063ae5f49f714610142578063afa8b07e14610172578063ff762358146101a25761007d565b80632302149f14610082578063456901e4146100b25780635a5e80e7146100e2575b600080fd5b61009c600480360381019061009791906104f8565b6101d2565b6040516100a991906105b5565b60405180910390f35b6100cc60048036038101906100c7919061060d565b610261565b6040516100d99190610649565b60405180910390f35b6100fc60048036038101906100f7919061060d565b61029d565b6040516101099190610649565b60405180910390f35b61012c6004803603810190610127919061060d565b6102d9565b6040516101399190610649565b60405180910390f35b61015c600480360381019061015791906104f8565b610336565b604051610169919061067f565b60405180910390f35b61018c6004803603810190610187919061069a565b610354565b6040516101999190610821565b60405180910390f35b6101bc60048036038101906101b7919061060d565b610421565b6040516101c99190610649565b60405180910390f35b606060006002836101e3919061086b565b14610223576040518060400160405280600381526020017f4f6464000000000000000000000000000000000000000000000000000000000081525061025a565b6040518060400160405280600481526020017f4576656e000000000000000000000000000000000000000000000000000000008152505b9050919050565b6000806000905060005b83811161029357808261027e91906108cb565b9150808061028b906108ff565b91505061026b565b5080915050919050565b6000806000905060005b8381116102cf5780826102ba91906108cb565b915080806102c7906108ff565b9150506102a7565b8192505050919050565b600080600090506000600190505b83811161032c5760006002826102fd9190610947565b0361031957600a811161032c57808261031691906108cb565b91505b8080610324906108ff565b9150506102e7565b5080915050919050565b6000600a82131561034a576001905061034f565b600090505b919050565b61035c61046e565b61036461046e565b6000600190505b848111610416576000600190505b8481116104025760028211158015610392575060028111155b156103ef5780826103a39190610978565b836001846103b191906109ba565b600281106103c2576103c16109ee565b5b60200201516001836103d491906109ba565b600281106103e5576103e46109ee565b5b6020020181815250505b80806103fa906108ff565b915050610379565b50808061040e906108ff565b91505061036b565b508091505092915050565b600080600090506000600184101561043e57600092505050610469565b5b808261044b91906108cb565b91508080610458906108ff565b9150508381111561043f5781925050505b919050565b60405180604001604052806002905b61048561049b565b81526020019060019003908161047d5790505090565b6040518060400160405280600290602082028036833780820191505090505090565b600080fd5b6000819050919050565b6104d5816104c2565b81146104e057600080fd5b50565b6000813590506104f2816104cc565b92915050565b60006020828403121561050e5761050d6104bd565b5b600061051c848285016104e3565b91505092915050565b600081519050919050565b600082825260208201905092915050565b60005b8381101561055f578082015181840152602081019050610544565b60008484015250505050565b6000601f19601f8301169050919050565b600061058782610525565b6105918185610530565b93506105a1818560208601610541565b6105aa8161056b565b840191505092915050565b600060208201905081810360008301526105cf818461057c565b905092915050565b6000819050919050565b6105ea816105d7565b81146105f557600080fd5b50565b600081359050610607816105e1565b92915050565b600060208284031215610623576106226104bd565b5b6000610631848285016105f8565b91505092915050565b610643816105d7565b82525050565b600060208201905061065e600083018461063a565b92915050565b60008115159050919050565b61067981610664565b82525050565b60006020820190506106946000830184610670565b92915050565b600080604083850312156106b1576106b06104bd565b5b60006106bf858286016105f8565b92505060206106d0858286016105f8565b9150509250929050565b600060029050919050565b600081905092915050565b6000819050919050565b600060029050919050565b600081905092915050565b6000819050919050565b610723816105d7565b82525050565b6000610735838361071a565b60208301905092915050565b6000602082019050919050565b610757816106fa565b6107618184610705565b925061076c82610710565b8060005b8381101561079d5781516107848782610729565b965061078f83610741565b925050600181019050610770565b505050505050565b60006107b1838361074e565b60408301905092915050565b6000602082019050919050565b6107d3816106da565b6107dd81846106e5565b92506107e8826106f0565b8060005b8381101561081957815161080087826107a5565b965061080b836107bd565b9250506001810190506107ec565b505050505050565b600060808201905061083660008301846107ca565b92915050565b7f4e487b7100000000000000000000000000000000000000000000000000000000600052601260045260246000fd5b6000610876826104c2565b9150610881836104c2565b9250826108915761089061083c565b5b828207905092915050565b7f4e487b7100000000000000000000000000000000000000000000000000000000600052601160045260246000fd5b60006108d6826105d7565b91506108e1836105d7565b92508282019050808211156108f9576108f861089c565b5b92915050565b600061090a826105d7565b91507fffffffffffffffffffffffffffffffffffffffffffffffffffffffffffffffff820361093c5761093b61089c565b5b600182019050919050565b6000610952826105d7565b915061095d836105d7565b92508261096d5761096c61083c565b5b828206905092915050565b6000610983826105d7565b915061098e836105d7565b925082820261099c816105d7565b915082820484148315176109b3576109b261089c565b5b5092915050565b60006109c5826105d7565b91506109d0836105d7565b92508282039050818111156109e8576109e761089c565b5b92915050565b7f4e487b7100000000000000000000000000000000000000000000000000000000600052603260045260246000fdfea264697066735822122066406d142ab0cde071ff43b42069eaab5718a5be3576a125569329f86f3b06b164736f6c63430008190033",
  "linkReferences": {},
  "deployedLinkReferences": {}
}