{
  "_format": "hh-sol-artifact-1",
  "contractName": "Funder",
  "sourceName": "contracts/Payable.sol",
  "abi": [
    {
      "inputs": [],
      "name": "FailedToSendEth",
      "type": "error"
    },
    {
      "inputs": [
        {
          "internalType": "address payable",
          "name": "_payableContractAddress",
          "type": "address"
        }
      ],
      "name": "callDeposit",
      "outputs": [],
      "stateMutability": "payable",
      "type": "function"
    },
    {
      "inputs": [
        {
          "internalType": "address payable",
          "name": "_receiver",
          "type": "address"
        }
      ],
      "name": "sendWithCall",
      "outputs": [
        {
          "internalType": "bool",
          "name": "sent",
          "type": "bool"
        },
        {
          "internalType": "bytes",
          "name": "data",
          "type": "bytes"
        }
      ],
      "stateMutability": "payable",
      "type": "function"
    },
    {
      "inputs": [
        {
          "internalType": "address payable",
          "name": "_receiver",
          "type": "address"
        }
      ],
      "name": "sendWithSend",
      "outputs": [
        {
          "internalType": "bool",
          "name": "sent",
          "type": "bool"
        }
      ],
      "stateMutability": "payable",
      "type": "function"
    },
    {
      "inputs": [
        {
          "internalType": "address payable",
          "name": "_receiver",
          "type": "address"
        }
      ],
      "name": "sendWithTransfer",
      "outputs": [],
      "stateMutability": "payable",
      "type": "function"
    }
  ],
  "bytecode": "0x6080604052348015600f57600080fd5b506107038061001f6000396000f3fe60806040526004361061003f5760003560e01c80635d3f13b9146100445780637c55feca146100605780637d970d5014610090578063f74e7688146100ac575b600080fd5b61005e600480360381019061005991906103ff565b6100dd565b005b61007a600480360381019061007591906103ff565b610225565b6040516100879190610447565b60405180910390f35b6100aa60048036038101906100a591906103ff565b61029a565b005b6100c660048036038101906100c191906103ff565b6102e4565b6040516100d49291906104f2565b60405180910390f35b60003490506000808373ffffffffffffffffffffffffffffffffffffffff16838460405160240161010e919061053b565b6040516020818303038152906040527fb6b55f25000000000000000000000000000000000000000000000000000000007bffffffffffffffffffffffffffffffffffffffffffffffffffffffff19166020820180517bffffffffffffffffffffffffffffffffffffffffffffffffffffffff83818316178352505050506040516101989190610592565b60006040518083038185875af1925050503d80600081146101d5576040519150601f19603f3d011682016040523d82523d6000602084013e6101da565b606091505b50915091508161021f576040517f08c379a000000000000000000000000000000000000000000000000000000000815260040161021690610606565b60405180910390fd5b50505050565b60008173ffffffffffffffffffffffffffffffffffffffff166108fc349081150290604051600060405180830381858888f19350505050905080610295576040517ffe8a94f400000000000000000000000000000000000000000000000000000000815260040160405180910390fd5b919050565b8073ffffffffffffffffffffffffffffffffffffffff166108fc349081150290604051600060405180830381858888f193505050501580156102e0573d6000803e3d6000fd5b5050565b600060608273ffffffffffffffffffffffffffffffffffffffff163460405161030c9061064c565b60006040518083038185875af1925050503d8060008114610349576040519150601f19603f3d011682016040523d82523d6000602084013e61034e565b606091505b50809250819350505081610397576040517f08c379a000000000000000000000000000000000000000000000000000000000815260040161038e906106ad565b60405180910390fd5b915091565b600080fd5b600073ffffffffffffffffffffffffffffffffffffffff82169050919050565b60006103cc826103a1565b9050919050565b6103dc816103c1565b81146103e757600080fd5b50565b6000813590506103f9816103d3565b92915050565b6000602082840312156104155761041461039c565b5b6000610423848285016103ea565b91505092915050565b60008115159050919050565b6104418161042c565b82525050565b600060208201905061045c6000830184610438565b92915050565b600081519050919050565b600082825260208201905092915050565b60005b8381101561049c578082015181840152602081019050610481565b60008484015250505050565b6000601f19601f8301169050919050565b60006104c482610462565b6104ce818561046d565b93506104de81856020860161047e565b6104e7816104a8565b840191505092915050565b60006040820190506105076000830185610438565b818103602083015261051981846104b9565b90509392505050565b6000819050919050565b61053581610522565b82525050565b6000602082019050610550600083018461052c565b92915050565b600081905092915050565b600061056c82610462565b6105768185610556565b935061058681856020860161047e565b80840191505092915050565b600061059e8284610561565b915081905092915050565b600082825260208201905092915050565b7f63616c6c206661696c6564000000000000000000000000000000000000000000600082015250565b60006105f0600b836105a9565b91506105fb826105ba565b602082019050919050565b6000602082019050818103600083015261061f816105e3565b9050919050565b50565b6000610636600083610556565b915061064182610626565b600082019050919050565b600061065782610629565b9150819050919050565b7f6661696c656420746f2073656e64206574680000000000000000000000000000600082015250565b60006106976012836105a9565b91506106a282610661565b602082019050919050565b600060208201905081810360008301526106c68161068a565b905091905056fea264697066735822122099c88d91f4234f416a108a4177b188a509f7f5a32dc5d1b8098185b7d189952f64736f6c63430008190033",
  "linkReferences": {},
  "deployedLinkReferences": {}
}