{
  "_format": "hh-sol-artifact-1",
  "contractName": "Payable",
  "sourceName": "contracts/Payable.sol",
  "abi": [
    {
      "inputs": [],
      "stateMutability": "payable",
      "type": "constructor"
    },
    {
      "inputs": [],
      "name": "FunctionDoesNotExit",
      "type": "error"
    },
    {
      "stateMutability": "payable",
      "type": "fallback"
    },
    {
      "inputs": [],
      "name": "counter",
      "outputs": [
        {
          "internalType": "uint256",
          "name": "",
          "type": "uint256"
        }
      ],
      "stateMutability": "view",
      "type": "function"
    },
    {
      "inputs": [
        {
          "internalType": "uint256",
          "name": "amount",
          "type": "uint256"
        }
      ],
      "name": "deposit",
      "outputs": [
        {
          "internalType": "uint256",
          "name": "",
          "type": "uint256"
        }
      ],
      "stateMutability": "payable",
      "type": "function"
    },
    {
      "inputs": [],
      "name": "getContractBalance",
      "outputs": [
        {
          "internalType": "uint256",
          "name": "contractBalance",
          "type": "uint256"
        }
      ],
      "stateMutability": "view",
      "type": "function"
    },
    {
      "inputs": [
        {
          "internalType": "address",
          "name": "investor",
          "type": "address"
        }
      ],
      "name": "getInvestment",
      "outputs": [
        {
          "internalType": "uint256",
          "name": "investment",
          "type": "uint256"
        }
      ],
      "stateMutability": "view",
      "type": "function"
    },
    {
      "inputs": [],
      "name": "getMyEthBalance",
      "outputs": [
        {
          "internalType": "uint256",
          "name": "myEthBalance",
          "type": "uint256"
        }
      ],
      "stateMutability": "view",
      "type": "function"
    },
    {
      "inputs": [],
      "name": "owner",
      "outputs": [
        {
          "internalType": "address payable",
          "name": "",
          "type": "address"
        }
      ],
      "stateMutability": "view",
      "type": "function"
    },
    {
      "stateMutability": "payable",
      "type": "receive"
    }
  ],
  "bytecode": "0x6080604052336000806101000a81548173ffffffffffffffffffffffffffffffffffffffff021916908373ffffffffffffffffffffffffffffffffffffffff16021790555061059f806100536000396000f3fe6080604052600436106100595760003560e01c80630709dec81461007a578063146b58df146100a557806361bc221a146100e25780636f9fb98a1461010d5780638da5cb5b14610138578063b6b55f251461016357610060565b3661006057005b60018060008282546100729190610309565b925050819055005b34801561008657600080fd5b5061008f610193565b60405161009c919061034c565b60405180910390f35b3480156100b157600080fd5b506100cc60048036038101906100c791906103ca565b6101b2565b6040516100d9919061034c565b60405180910390f35b3480156100ee57600080fd5b506100f76101fb565b604051610104919061034c565b60405180910390f35b34801561011957600080fd5b50610122610201565b60405161012f919061034c565b60405180910390f35b34801561014457600080fd5b5061014d61021c565b60405161015a9190610418565b60405180910390f35b61017d6004803603810190610178919061045f565b610240565b60405161018a919061034c565b60405180910390f35b60003373ffffffffffffffffffffffffffffffffffffffff1631905090565b6000600260008373ffffffffffffffffffffffffffffffffffffffff1673ffffffffffffffffffffffffffffffffffffffff168152602001908152602001600020549050919050565b60015481565b6000670de0b6b3a76400004761021791906104bb565b905090565b60008054906101000a900473ffffffffffffffffffffffffffffffffffffffff1681565b6000348214610284576040517f08c379a000000000000000000000000000000000000000000000000000000000815260040161027b90610549565b60405180910390fd5b81600260003373ffffffffffffffffffffffffffffffffffffffff1673ffffffffffffffffffffffffffffffffffffffff16815260200190815260200160002081905550819050919050565b6000819050919050565b7f4e487b7100000000000000000000000000000000000000000000000000000000600052601160045260246000fd5b6000610314826102d0565b915061031f836102d0565b9250828201905080821115610337576103366102da565b5b92915050565b610346816102d0565b82525050565b6000602082019050610361600083018461033d565b92915050565b600080fd5b600073ffffffffffffffffffffffffffffffffffffffff82169050919050565b60006103978261036c565b9050919050565b6103a78161038c565b81146103b257600080fd5b50565b6000813590506103c48161039e565b92915050565b6000602082840312156103e0576103df610367565b5b60006103ee848285016103b5565b91505092915050565b60006104028261036c565b9050919050565b610412816103f7565b82525050565b600060208201905061042d6000830184610409565b92915050565b61043c816102d0565b811461044757600080fd5b50565b60008135905061045981610433565b92915050565b60006020828403121561047557610474610367565b5b60006104838482850161044a565b91505092915050565b7f4e487b7100000000000000000000000000000000000000000000000000000000600052601260045260246000fd5b60006104c6826102d0565b91506104d1836102d0565b9250826104e1576104e061048c565b5b828204905092915050565b600082825260208201905092915050565b7f6d73672e76616c7565206d75737420657175616c206574680000000000000000600082015250565b60006105336018836104ec565b915061053e826104fd565b602082019050919050565b6000602082019050818103600083015261056281610526565b905091905056fea2646970667358221220a32091f27ae08c124010c542df629a21b08c36a840982ee34fa981c440cd463f64736f6c63430008190033",
  "linkReferences": {},
  "deployedLinkReferences": {}
}