{
  "_format": "hh-sol-artifact-1",
  "contractName": "Crowdfunding",
  "sourceName": "contracts/task-3/Crowdfunding.sol",
  "abi": [
    {
      "inputs": [
        {
          "internalType": "address",
          "name": "_token",
          "type": "address"
        },
        {
          "internalType": "uint256",
          "name": "fundingGoalInEther",
          "type": "uint256"
        },
        {
          "internalType": "uint256",
          "name": "durationInDays",
          "type": "uint256"
        }
      ],
      "stateMutability": "nonpayable",
      "type": "constructor"
    },
    {
      "anonymous": false,
      "inputs": [
        {
          "indexed": false,
          "internalType": "uint256",
          "name": "totalContributions",
          "type": "uint256"
        }
      ],
      "name": "DeadlineReached",
      "type": "event"
    },
    {
      "anonymous": false,
      "inputs": [
        {
          "indexed": false,
          "internalType": "uint256",
          "name": "totalContributions",
          "type": "uint256"
        }
      ],
      "name": "GoalReached",
      "type": "event"
    },
    {
      "inputs": [],
      "name": "campaign",
      "outputs": [
        {
          "internalType": "address",
          "name": "creator",
          "type": "address"
        },
        {
          "internalType": "uint256",
          "name": "goal",
          "type": "uint256"
        },
        {
          "internalType": "uint256",
          "name": "deadline",
          "type": "uint256"
        },
        {
          "internalType": "uint256",
          "name": "totalContributions",
          "type": "uint256"
        },
        {
          "internalType": "bool",
          "name": "isFunded",
          "type": "bool"
        },
        {
          "internalType": "enum Crowdfunding.CampaignStatus",
          "name": "completed",
          "type": "uint8"
        }
      ],
      "stateMutability": "view",
      "type": "function"
    },
    {
      "inputs": [],
      "name": "contribute",
      "outputs": [],
      "stateMutability": "payable",
      "type": "function"
    },
    {
      "inputs": [
        {
          "internalType": "address",
          "name": "",
          "type": "address"
        }
      ],
      "name": "contributions",
      "outputs": [
        {
          "internalType": "uint256",
          "name": "",
          "type": "uint256"
        }
      ],
      "stateMutability": "view",
      "type": "function"
    },
    {
      "inputs": [
        {
          "internalType": "uint256",
          "name": "durationInDays",
          "type": "uint256"
        }
      ],
      "name": "extendDeadline",
      "outputs": [],
      "stateMutability": "nonpayable",
      "type": "function"
    },
    {
      "inputs": [],
      "name": "getCurrentBalance",
      "outputs": [
        {
          "internalType": "uint256",
          "name": "",
          "type": "uint256"
        }
      ],
      "stateMutability": "view",
      "type": "function"
    },
    {
      "inputs": [],
      "name": "token",
      "outputs": [
        {
          "internalType": "contract IERC20",
          "name": "",
          "type": "address"
        }
      ],
      "stateMutability": "view",
      "type": "function"
    },
    {
      "inputs": [],
      "name": "withdrawContribution",
      "outputs": [],
      "stateMutability": "nonpayable",
      "type": "function"
    }
  ],
  "bytecode": "0x608060405234801561001057600080fd5b506040516110ec3803806110ec83398181016040528101906100329190610253565b826000806101000a81548173ffffffffffffffffffffffffffffffffffffffff021916908373ffffffffffffffffffffffffffffffffffffffff1602179055506040518060c001604052803373ffffffffffffffffffffffffffffffffffffffff168152602001670de0b6b3a7640000846100ad91906102d5565b815260200162015180836100c191906102d5565b426100cc9190610317565b815260200160008152602001600015158152602001600060018111156100f5576100f461034b565b5b815250600160008201518160000160006101000a81548173ffffffffffffffffffffffffffffffffffffffff021916908373ffffffffffffffffffffffffffffffffffffffff16021790555060208201518160010155604082015181600201556060820151816003015560808201518160040160006101000a81548160ff02191690831515021790555060a08201518160040160016101000a81548160ff021916908360018111156101aa576101a961034b565b5b021790555090505050505061037a565b600080fd5b600073ffffffffffffffffffffffffffffffffffffffff82169050919050565b60006101ea826101bf565b9050919050565b6101fa816101df565b811461020557600080fd5b50565b600081519050610217816101f1565b92915050565b6000819050919050565b6102308161021d565b811461023b57600080fd5b50565b60008151905061024d81610227565b92915050565b60008060006060848603121561026c5761026b6101ba565b5b600061027a86828701610208565b935050602061028b8682870161023e565b925050604061029c8682870161023e565b9150509250925092565b7f4e487b7100000000000000000000000000000000000000000000000000000000600052601160045260246000fd5b60006102e08261021d565b91506102eb8361021d565b92508282026102f98161021d565b915082820484148315176103105761030f6102a6565b5b5092915050565b60006103228261021d565b915061032d8361021d565b9250828201905080821115610345576103446102a6565b5b92915050565b7f4e487b7100000000000000000000000000000000000000000000000000000000600052602160045260246000fd5b610d63806103896000396000f3fe6080604052600436106100705760003560e01c8063811e539c1161004e578063811e539c146100f2578063a574971014610122578063d7bb99ba1461014d578063fc0c546a1461015757610070565b80630d616d2014610075578063389b75331461008c57806342e94c90146100b5575b600080fd5b34801561008157600080fd5b5061008a610182565b005b34801561009857600080fd5b506100b360048036038101906100ae9190610762565b61037b565b005b3480156100c157600080fd5b506100dc60048036038101906100d791906107ed565b61043b565b6040516100e99190610829565b60405180910390f35b3480156100fe57600080fd5b50610107610453565b604051610119969594939291906108e5565b60405180910390f35b34801561012e57600080fd5b506101376104b7565b6040516101449190610829565b60405180910390f35b6101556104bf565b005b34801561016357600080fd5b5061016c610703565b60405161017991906109a5565b60405180910390f35b600160000160009054906101000a900473ffffffffffffffffffffffffffffffffffffffff1673ffffffffffffffffffffffffffffffffffffffff163373ffffffffffffffffffffffffffffffffffffffff1614610215576040517f08c379a000000000000000000000000000000000000000000000000000000000815260040161020c90610a43565b60405180910390fd5b600160040160009054906101000a900460ff16610267576040517f08c379a000000000000000000000000000000000000000000000000000000000815260040161025e90610aaf565b60405180910390fd5b6000600181111561027b5761027a61086e565b5b600160040160019054906101000a900460ff1660018111156102a05761029f61086e565b5b146102e0576040517f08c379a00000000000000000000000000000000000000000000000000000000081526004016102d790610b41565b60405180910390fd5b60018060040160016101000a81548160ff021916908360018111156103085761030761086e565b5b0217905550600160000160009054906101000a900473ffffffffffffffffffffffffffffffffffffffff1673ffffffffffffffffffffffffffffffffffffffff166108fc479081150290604051600060405180830381858888f19350505050158015610378573d6000803e3d6000fd5b50565b600160000160009054906101000a900473ffffffffffffffffffffffffffffffffffffffff1673ffffffffffffffffffffffffffffffffffffffff163373ffffffffffffffffffffffffffffffffffffffff161461040e576040517f08c379a000000000000000000000000000000000000000000000000000000000815260040161040590610a43565b60405180910390fd5b620151808161041d9190610b90565b600160020160008282546104319190610bd2565b9250508190555050565b60066020528060005260406000206000915090505481565b60018060000160009054906101000a900473ffffffffffffffffffffffffffffffffffffffff16908060010154908060020154908060030154908060040160009054906101000a900460ff16908060040160019054906101000a900460ff16905086565b600047905090565b6001600201544210610506576040517f08c379a00000000000000000000000000000000000000000000000000000000081526004016104fd90610c52565b60405180910390fd5b6000600181111561051a5761051961086e565b5b600160040160019054906101000a900460ff16600181111561053f5761053e61086e565b5b1461057f576040517f08c379a000000000000000000000000000000000000000000000000000000000815260040161057690610ce4565b60405180910390fd5b600034905080600660003373ffffffffffffffffffffffffffffffffffffffff1673ffffffffffffffffffffffffffffffffffffffff16815260200190815260200160002060008282546105d39190610bd2565b9250508190555080600160030160008282546105ef9190610bd2565b9250508190555060006103e8826106069190610b90565b905060008054906101000a900473ffffffffffffffffffffffffffffffffffffffff1673ffffffffffffffffffffffffffffffffffffffff166340c10f1933836040518363ffffffff1660e01b8152600401610663929190610d04565b600060405180830381600087803b15801561067d57600080fd5b505af1158015610691573d6000803e3d6000fd5b505050506001800154600160030154106106ff5760018060040160006101000a81548160ff0219169083151502179055507ffbfd8ab7c24300fa9888cd721c8565a7da56759384781283684dcf7c7c4a846b6001600301546040516106f69190610829565b60405180910390a15b5050565b60008054906101000a900473ffffffffffffffffffffffffffffffffffffffff1681565b600080fd5b6000819050919050565b61073f8161072c565b811461074a57600080fd5b50565b60008135905061075c81610736565b92915050565b60006020828403121561077857610777610727565b5b60006107868482850161074d565b91505092915050565b600073ffffffffffffffffffffffffffffffffffffffff82169050919050565b60006107ba8261078f565b9050919050565b6107ca816107af565b81146107d557600080fd5b50565b6000813590506107e7816107c1565b92915050565b60006020828403121561080357610802610727565b5b6000610811848285016107d8565b91505092915050565b6108238161072c565b82525050565b600060208201905061083e600083018461081a565b92915050565b61084d816107af565b82525050565b60008115159050919050565b61086881610853565b82525050565b7f4e487b7100000000000000000000000000000000000000000000000000000000600052602160045260246000fd5b600281106108ae576108ad61086e565b5b50565b60008190506108bf8261089d565b919050565b60006108cf826108b1565b9050919050565b6108df816108c4565b82525050565b600060c0820190506108fa6000830189610844565b610907602083018861081a565b610914604083018761081a565b610921606083018661081a565b61092e608083018561085f565b61093b60a08301846108d6565b979650505050505050565b6000819050919050565b600061096b6109666109618461078f565b610946565b61078f565b9050919050565b600061097d82610950565b9050919050565b600061098f82610972565b9050919050565b61099f81610984565b82525050565b60006020820190506109ba6000830184610996565b92915050565b600082825260208201905092915050565b7f4f6e6c79207468652063726561746f722063616e2063616c6c2074686973206660008201527f756e6374696f6e00000000000000000000000000000000000000000000000000602082015250565b6000610a2d6027836109c0565b9150610a38826109d1565b604082019050919050565b60006020820190508181036000830152610a5c81610a20565b9050919050565b7f476f616c20686173206e6f74206265656e207265616368656400000000000000600082015250565b6000610a996019836109c0565b9150610aa482610a63565b602082019050919050565b60006020820190508181036000830152610ac881610a8c565b9050919050565b7f43726f776466756e64696e6720697320616c726561647920636f6d706c65746560008201527f642e000000000000000000000000000000000000000000000000000000000000602082015250565b6000610b2b6022836109c0565b9150610b3682610acf565b604082019050919050565b60006020820190508181036000830152610b5a81610b1e565b9050919050565b7f4e487b7100000000000000000000000000000000000000000000000000000000600052601160045260246000fd5b6000610b9b8261072c565b9150610ba68361072c565b9250828202610bb48161072c565b91508282048414831517610bcb57610bca610b61565b5b5092915050565b6000610bdd8261072c565b9150610be88361072c565b9250828201905080821115610c0057610bff610b61565b5b92915050565b7f46756e64696e6720706572696f642068617320656e6465640000000000000000600082015250565b6000610c3c6018836109c0565b9150610c4782610c06565b602082019050919050565b60006020820190508181036000830152610c6b81610c2f565b9050919050565b7f43726f776466756e64696e6720697320616c726561647920636f6d706c65746560008201527f6400000000000000000000000000000000000000000000000000000000000000602082015250565b6000610cce6021836109c0565b9150610cd982610c72565b604082019050919050565b60006020820190508181036000830152610cfd81610cc1565b9050919050565b6000604082019050610d196000830185610844565b610d26602083018461081a565b939250505056fea26469706673582212205dc4d869223c9f53bdfe936c8bb72a7ff83c2d371eca9d8624c72f9354cb793164736f6c63430008190033",
  "linkReferences": {},
  "deployedLinkReferences": {}
}