{
  "_format": "hh-sol-artifact-1",
  "contractName": "PrimitiveDataTypes",
  "sourceName": "contracts/Primitives.sol",
  "abi": [
    {
      "inputs": [
        {
          "internalType": "uint256",
          "name": "_a",
          "type": "uint256"
        },
        {
          "internalType": "uint256",
          "name": "_b",
          "type": "uint256"
        }
      ],
      "name": "arithmetic",
      "outputs": [
        {
          "internalType": "uint256",
          "name": "",
          "type": "uint256"
        }
      ],
      "stateMutability": "pure",
      "type": "function"
    },
    {
      "inputs": [
        {
          "internalType": "uint256",
          "name": "_value",
          "type": "uint256"
        }
      ],
      "name": "assignment",
      "outputs": [],
      "stateMutability": "nonpayable",
      "type": "function"
    },
    {
      "inputs": [
        {
          "internalType": "uint256",
          "name": "_a",
          "type": "uint256"
        },
        {
          "internalType": "uint256",
          "name": "_b",
          "type": "uint256"
        }
      ],
      "name": "bitwise",
      "outputs": [
        {
          "internalType": "uint256",
          "name": "",
          "type": "uint256"
        }
      ],
      "stateMutability": "pure",
      "type": "function"
    },
    {
      "inputs": [
        {
          "internalType": "int256",
          "name": "_x",
          "type": "int256"
        },
        {
          "internalType": "int256",
          "name": "_y",
          "type": "int256"
        }
      ],
      "name": "comparison",
      "outputs": [
        {
          "internalType": "bool",
          "name": "",
          "type": "bool"
        }
      ],
      "stateMutability": "pure",
      "type": "function"
    },
    {
      "inputs": [
        {
          "internalType": "bool",
          "name": "_p",
          "type": "bool"
        },
        {
          "internalType": "bool",
          "name": "_q",
          "type": "bool"
        }
      ],
      "name": "logical",
      "outputs": [
        {
          "internalType": "bool",
          "name": "",
          "type": "bool"
        }
      ],
      "stateMutability": "pure",
      "type": "function"
    },
    {
      "inputs": [],
      "name": "myAddress",
      "outputs": [
        {
          "internalType": "address",
          "name": "",
          "type": "address"
        }
      ],
      "stateMutability": "view",
      "type": "function"
    },
    {
      "inputs": [],
      "name": "myBool",
      "outputs": [
        {
          "internalType": "bool",
          "name": "",
          "type": "bool"
        }
      ],
      "stateMutability": "view",
      "type": "function"
    },
    {
      "inputs": [],
      "name": "myBytes",
      "outputs": [
        {
          "internalType": "bytes32",
          "name": "",
          "type": "bytes32"
        }
      ],
      "stateMutability": "view",
      "type": "function"
    },
    {
      "inputs": [],
      "name": "myInt",
      "outputs": [
        {
          "internalType": "int256",
          "name": "",
          "type": "int256"
        }
      ],
      "stateMutability": "view",
      "type": "function"
    },
    {
      "inputs": [],
      "name": "myStatus",
      "outputs": [
        {
          "internalType": "enum PrimitiveDataTypes.Status",
          "name": "",
          "type": "uint8"
        }
      ],
      "stateMutability": "view",
      "type": "function"
    },
    {
      "inputs": [],
      "name": "myString",
      "outputs": [
        {
          "internalType": "string",
          "name": "",
          "type": "string"
        }
      ],
      "stateMutability": "view",
      "type": "function"
    },
    {
      "inputs": [],
      "name": "myUint",
      "outputs": [
        {
          "internalType": "uint256",
          "name": "",
          "type": "uint256"
        }
      ],
      "stateMutability": "view",
      "type": "function"
    },
    {
      "inputs": [
        {
          "internalType": "enum PrimitiveDataTypes.Status",
          "name": "_newStatus",
          "type": "uint8"
        }
      ],
      "name": "setStatus",
      "outputs": [],
      "stateMutability": "nonpayable",
      "type": "function"
    }
  ],
  "bytecode": "0x6080604052600a6000557ffffffffffffffffffffffffffffffffffffffffffffffffffffffffffffffffb6001556001600260006101000a81548160ff02191690831515021790555073fabb0ac9d68b0b445fb7357272ff202c5651694a600260016101000a81548173ffffffffffffffffffffffffffffffffffffffff021916908373ffffffffffffffffffffffffffffffffffffffff1602179055507f48656c6c6f2c20776f726c6421000000000000000000000000000000000000006003556040518060400160405280601181526020017f54686973206973206120737472696e672e000000000000000000000000000000815250600490816101059190610393565b506000600560006101000a81548160ff0219169083600381111561012c5761012b610465565b5b021790555034801561013d57600080fd5b50610494565b600081519050919050565b7f4e487b7100000000000000000000000000000000000000000000000000000000600052604160045260246000fd5b7f4e487b7100000000000000000000000000000000000000000000000000000000600052602260045260246000fd5b600060028204905060018216806101c457607f821691505b6020821081036101d7576101d661017d565b5b50919050565b60008190508160005260206000209050919050565b60006020601f8301049050919050565b600082821b905092915050565b60006008830261023f7fffffffffffffffffffffffffffffffffffffffffffffffffffffffffffffffff82610202565b6102498683610202565b95508019841693508086168417925050509392505050565b6000819050919050565b6000819050919050565b600061029061028b61028684610261565b61026b565b610261565b9050919050565b6000819050919050565b6102aa83610275565b6102be6102b682610297565b84845461020f565b825550505050565b600090565b6102d36102c6565b6102de8184846102a1565b505050565b5b81811015610302576102f76000826102cb565b6001810190506102e4565b5050565b601f82111561034757610318816101dd565b610321846101f2565b81016020851015610330578190505b61034461033c856101f2565b8301826102e3565b50505b505050565b600082821c905092915050565b600061036a6000198460080261034c565b1980831691505092915050565b60006103838383610359565b9150826002028217905092915050565b61039c82610143565b67ffffffffffffffff8111156103b5576103b461014e565b5b6103bf82546101ac565b6103ca828285610306565b600060209050601f8311600181146103fd57600084156103eb578287015190505b6103f58582610377565b86555061045d565b601f19841661040b866101dd565b60005b828110156104335784890151825560018201915060208501945060208101905061040e565b86831015610450578489015161044c601f891682610359565b8355505b6001600288020188555050505b505050505050565b7f4e487b7100000000000000000000000000000000000000000000000000000000600052602160045260246000fd5b610ba8806104a36000396000f3fe608060405234801561001057600080fd5b50600436106100cf5760003560e01c8063492bfa181161008c578063712f460211610066578063712f4602146102165780639ba18f31146102345780639ce85dff14610264578063c806bb2c14610282576100cf565b8063492bfa18146101aa5780636cbb5ae3146101c85780636deecdbe146101f8576100cf565b806306540f7e146100d457806326b85ee1146100f25780632c27aaa9146101105780632cb777a6146101405780632e49d78b1461015e5780632ef0c2201461017a575b600080fd5b6100dc61029e565b6040516100e99190610587565b60405180910390f35b6100fa6102a4565b60405161010791906105e3565b60405180910390f35b61012a6004803603810190610125919061062f565b6102ca565b6040516101379190610587565b60405180910390f35b610148610307565b6040516101559190610688565b60405180910390f35b610178600480360381019061017391906106c8565b61030d565b005b610194600480360381019061018f919061072d565b61033a565b6040516101a1919061077c565b60405180910390f35b6101b261036f565b6040516101bf9190610827565b60405180910390f35b6101e260048036038101906101dd919061062f565b6103fd565b6040516101ef9190610587565b60405180910390f35b61020061045c565b60405161020d919061077c565b60405180910390f35b61021e61046f565b60405161022b9190610862565b60405180910390f35b61024e600480360381019061024991906108a9565b610475565b60405161025b919061077c565b60405180910390f35b61026c6104b2565b6040516102799190610960565b60405180910390f35b61029c6004803603810190610297919061097b565b6104c5565b005b60005481565b600260019054906101000a900473ffffffffffffffffffffffffffffffffffffffff1681565b600080828416905060008385179050600084861890506000861990506000600188901b90506000600189901c905085965050505050505092915050565b60015481565b80600560006101000a81548160ff02191690836003811115610332576103316108e9565b5b021790555050565b6000808380156103475750825b9050600084806103545750835b90506000851590506000851590508394505050505092915050565b6004805461037c906109d7565b80601f01602080910402602001604051908101604052809291908181526020018280546103a8906109d7565b80156103f55780601f106103ca576101008083540402835291602001916103f5565b820191906000526020600020905b8154815290600101906020018083116103d857829003601f168201915b505050505081565b600080828461040c9190610a37565b90506000838561041c9190610a6b565b90506000848661042c9190610a9f565b90506000858761043c9190610b10565b90506000868861044c9190610b41565b9050849550505050505092915050565b600260009054906101000a900460ff1681565b60035481565b6000808284149050600083851415905060008486139050600085871290506000868812159050600087891315905083965050505050505092915050565b600560009054906101000a900460ff1681565b8060008190555060056000808282546104de9190610a37565b9250508190555060026000808282546104f79190610a6b565b9250508190555060036000808282546105109190610a9f565b9250508190555060026000808282546105299190610b10565b9250508190555060076000808282546105429190610b41565b925050819055506001600080828254901b925050819055506001600080828254901c9250508190555050565b6000819050919050565b6105818161056e565b82525050565b600060208201905061059c6000830184610578565b92915050565b600073ffffffffffffffffffffffffffffffffffffffff82169050919050565b60006105cd826105a2565b9050919050565b6105dd816105c2565b82525050565b60006020820190506105f860008301846105d4565b92915050565b600080fd5b61060c8161056e565b811461061757600080fd5b50565b60008135905061062981610603565b92915050565b60008060408385031215610646576106456105fe565b5b60006106548582860161061a565b92505060206106658582860161061a565b9150509250929050565b6000819050919050565b6106828161066f565b82525050565b600060208201905061069d6000830184610679565b92915050565b600481106106b057600080fd5b50565b6000813590506106c2816106a3565b92915050565b6000602082840312156106de576106dd6105fe565b5b60006106ec848285016106b3565b91505092915050565b60008115159050919050565b61070a816106f5565b811461071557600080fd5b50565b60008135905061072781610701565b92915050565b60008060408385031215610744576107436105fe565b5b600061075285828601610718565b925050602061076385828601610718565b9150509250929050565b610776816106f5565b82525050565b6000602082019050610791600083018461076d565b92915050565b600081519050919050565b600082825260208201905092915050565b60005b838110156107d15780820151818401526020810190506107b6565b60008484015250505050565b6000601f19601f8301169050919050565b60006107f982610797565b61080381856107a2565b93506108138185602086016107b3565b61081c816107dd565b840191505092915050565b6000602082019050818103600083015261084181846107ee565b905092915050565b6000819050919050565b61085c81610849565b82525050565b60006020820190506108776000830184610853565b92915050565b6108868161066f565b811461089157600080fd5b50565b6000813590506108a38161087d565b92915050565b600080604083850312156108c0576108bf6105fe565b5b60006108ce85828601610894565b92505060206108df85828601610894565b9150509250929050565b7f4e487b7100000000000000000000000000000000000000000000000000000000600052602160045260246000fd5b60048110610929576109286108e9565b5b50565b600081905061093a82610918565b919050565b600061094a8261092c565b9050919050565b61095a8161093f565b82525050565b60006020820190506109756000830184610951565b92915050565b600060208284031215610991576109906105fe565b5b600061099f8482850161061a565b91505092915050565b7f4e487b7100000000000000000000000000000000000000000000000000000000600052602260045260246000fd5b600060028204905060018216806109ef57607f821691505b602082108103610a0257610a016109a8565b5b50919050565b7f4e487b7100000000000000000000000000000000000000000000000000000000600052601160045260246000fd5b6000610a428261056e565b9150610a4d8361056e565b9250828201905080821115610a6557610a64610a08565b5b92915050565b6000610a768261056e565b9150610a818361056e565b9250828203905081811115610a9957610a98610a08565b5b92915050565b6000610aaa8261056e565b9150610ab58361056e565b9250828202610ac38161056e565b91508282048414831517610ada57610ad9610a08565b5b5092915050565b7f4e487b7100000000000000000000000000000000000000000000000000000000600052601260045260246000fd5b6000610b1b8261056e565b9150610b268361056e565b925082610b3657610b35610ae1565b5b828204905092915050565b6000610b4c8261056e565b9150610b578361056e565b925082610b6757610b66610ae1565b5b82820690509291505056fea2646970667358221220a6aad1470b7dc616a1f74d7971b5da853ee513ebd32db8ed866c165edb73583e64736f6c63430008190033",
  "linkReferences": {},
  "deployedLinkReferences": {}
}