{
  "_format": "hh-sol-artifact-1",
  "contractName": "Counter",
  "sourceName": "contracts/Counter.sol",
  "abi": [
    {
      "anonymous": false,
      "inputs": [
        {
          "indexed": false,
          "internalType": "uint256",
          "name": "amount",
          "type": "uint256"
        },
        {
          "indexed": false,
          "internalType": "uint256",
          "name": "when",
          "type": "uint256"
        }
      ],
      "name": "CountDecreased",
      "type": "event"
    },
    {
      "anonymous": false,
      "inputs": [
        {
          "indexed": false,
          "internalType": "uint256",
          "name": "amount",
          "type": "uint256"
        },
        {
          "indexed": false,
          "internalType": "uint256",
          "name": "when",
          "type": "uint256"
        }
      ],
      "name": "CountIncreased",
      "type": "event"
    },
    {
      "inputs": [],
      "name": "count",
      "outputs": [
        {
          "internalType": "uint256",
          "name": "",
          "type": "uint256"
        }
      ],
      "stateMutability": "view",
      "type": "function"
    },
    {
      "inputs": [],
      "name": "decreaseByOne",
      "outputs": [],
      "stateMutability": "nonpayable",
      "type": "function"
    },
    {
      "inputs": [
        {
          "internalType": "uint256",
          "name": "_value",
          "type": "uint256"
        }
      ],
      "name": "decreaseByValue",
      "outputs": [],
      "stateMutability": "nonpayable",
      "type": "function"
    },
    {
      "inputs": [],
      "name": "getCount",
      "outputs": [
        {
          "internalType": "uint256",
          "name": "",
          "type": "uint256"
        }
      ],
      "stateMutability": "view",
      "type": "function"
    },
    {
      "inputs": [],
      "name": "getMaxUint256",
      "outputs": [
        {
          "internalType": "uint256",
          "name": "",
          "type": "uint256"
        }
      ],
      "stateMutability": "pure",
      "type": "function"
    },
    {
      "inputs": [],
      "name": "increaseByOne",
      "outputs": [],
      "stateMutability": "nonpayable",
      "type": "function"
    },
    {
      "inputs": [
        {
          "internalType": "uint256",
          "name": "_value",
          "type": "uint256"
        }
      ],
      "name": "increaseByValue",
      "outputs": [],
      "stateMutability": "nonpayable",
      "type": "function"
    },
    {
      "inputs": [],
      "name": "resetCount",
      "outputs": [],
      "stateMutability": "nonpayable",
      "type": "function"
    }
  ],
  "bytecode": "0x6080604052348015600f57600080fd5b506106a98061001f6000396000f3fe608060405234801561001057600080fd5b50600436106100885760003560e01c8063974ba1e21161005b578063974ba1e2146100ed578063a87d942c146100f7578063d3c60c7a14610115578063fd8952921461013357610088565b806306661abd1461008d57806334fad97d146100ab57806364cf7d4a146100c757806393158b0e146100e3575b600080fd5b61009561013d565b6040516100a29190610451565b60405180910390f35b6100c560048036038101906100c0919061049d565b610143565b005b6100e160048036038101906100dc919061049d565b6101f0565b005b6100eb61028b565b005b6100f5610325565b005b6100ff6103df565b60405161010c9190610451565b60405180910390f35b61011d6103e8565b60405161012a9190610451565b60405180910390f35b61013b6103f4565b005b60005481565b61014b6103e8565b8160005461015991906104f9565b111561019a576040517f08c379a00000000000000000000000000000000000000000000000000000000081526004016101919061058a565b60405180910390fd5b806000808282546101ab91906104f9565b925050819055507f4d83071bd939c85dc5ac3b242dd30a607f340a2b0671e8d3e3a3878b5f05e633600054426040516101e59291906105aa565b60405180910390a150565b806000541015610235576040517f08c379a000000000000000000000000000000000000000000000000000000000815260040161022c9061061f565b60405180910390fd5b80600080828254610246919061063f565b925050819055507f9f823ef4ff6c0c3cc6b78e145c4a8f0eb7d3e580edcbcac1f96a5a2b2de7b813600054426040516102809291906105aa565b60405180910390a150565b60008054116102cf576040517f08c379a00000000000000000000000000000000000000000000000000000000081526004016102c69061061f565b60405180910390fd5b60016000808282546102e1919061063f565b925050819055507f9f823ef4ff6c0c3cc6b78e145c4a8f0eb7d3e580edcbcac1f96a5a2b2de7b8136000544260405161031b9291906105aa565b60405180910390a1565b7fffffffffffffffffffffffffffffffffffffffffffffffffffffffffffffffff60005410610389576040517f08c379a00000000000000000000000000000000000000000000000000000000081526004016103809061058a565b60405180910390fd5b600160008082825461039b91906104f9565b925050819055507f4d83071bd939c85dc5ac3b242dd30a607f340a2b0671e8d3e3a3878b5f05e633600054426040516103d59291906105aa565b60405180910390a1565b60008054905090565b60006001600003905090565b600080819055507f9f823ef4ff6c0c3cc6b78e145c4a8f0eb7d3e580edcbcac1f96a5a2b2de7b8136000544260405161042e9291906105aa565b60405180910390a1565b6000819050919050565b61044b81610438565b82525050565b60006020820190506104666000830184610442565b92915050565b600080fd5b61047a81610438565b811461048557600080fd5b50565b60008135905061049781610471565b92915050565b6000602082840312156104b3576104b261046c565b5b60006104c184828501610488565b91505092915050565b7f4e487b7100000000000000000000000000000000000000000000000000000000600052601160045260246000fd5b600061050482610438565b915061050f83610438565b9250828201905080821115610527576105266104ca565b5b92915050565b600082825260208201905092915050565b7f63616e6e6f7420696e637265617365206265796f6e64206d61782075696e7400600082015250565b6000610574601f8361052d565b915061057f8261053e565b602082019050919050565b600060208201905081810360008301526105a381610567565b9050919050565b60006040820190506105bf6000830185610442565b6105cc6020830184610442565b9392505050565b7f63616e6e6f742064656372656173652062656c6f772030000000000000000000600082015250565b600061060960178361052d565b9150610614826105d3565b602082019050919050565b60006020820190508181036000830152610638816105fc565b9050919050565b600061064a82610438565b915061065583610438565b925082820390508181111561066d5761066c6104ca565b5b9291505056fea26469706673582212200d1e5a17856d8e3e9096583ac77613b805bb5f49a670ed7f8a60d9e66255ff9864736f6c63430008190033",
  "linkReferences": {},
  "deployedLinkReferences": {}
}