{
  "_format": "hh-sol-artifact-1",
  "contractName": "A",
  "sourceName": "contracts/Inheritance.sol",
  "abi": [
    {
      "inputs": [],
      "name": "alice",
      "outputs": [
        {
          "internalType": "string",
          "name": "",
          "type": "string"
        }
      ],
      "stateMutability": "pure",
      "type": "function"
    },
    {
      "inputs": [],
      "name": "olive",
      "outputs": [
        {
          "internalType": "string",
          "name": "",
          "type": "string"
        }
      ],
      "stateMutability": "pure",
      "type": "function"
    }
  ],
  "bytecode": "0x6080604052348015600f57600080fd5b506101d98061001f6000396000f3fe608060405234801561001057600080fd5b50600436106100365760003560e01c8063a09c07541461003b578063fb47e3a214610059575b600080fd5b610043610077565b6040516100509190610181565b60405180910390f35b6100616100b4565b60405161006e9190610181565b60405180910390f35b60606040518060400160405280600781526020017f47616c696c656500000000000000000000000000000000000000000000000000815250905090565b60606040518060400160405280600581526020017f416c696365000000000000000000000000000000000000000000000000000000815250905090565b600081519050919050565b600082825260208201905092915050565b60005b8381101561012b578082015181840152602081019050610110565b60008484015250505050565b6000601f19601f8301169050919050565b6000610153826100f1565b61015d81856100fc565b935061016d81856020860161010d565b61017681610137565b840191505092915050565b6000602082019050818103600083015261019b8184610148565b90509291505056fea264697066735822122005a372b71b109600454368bcde37b6f8714192c564b6570c7c295a8c6f50dd7864736f6c63430008190033",
  "linkReferences": {},
  "deployedLinkReferences": {}
}