{
  "_format": "hh-sol-artifact-1",
  "contractName": "B",
  "sourceName": "contracts/Inheritance.sol",
  "abi": [
    {
      "inputs": [],
      "name": "alice",
      "outputs": [
        {
          "internalType": "string",
          "name": "",
          "type": "string"
        }
      ],
      "stateMutability": "pure",
      "type": "function"
    },
    {
      "inputs": [],
      "name": "bob",
      "outputs": [
        {
          "internalType": "string",
          "name": "",
          "type": "string"
        }
      ],
      "stateMutability": "pure",
      "type": "function"
    },
    {
      "inputs": [],
      "name": "olive",
      "outputs": [
        {
          "internalType": "string",
          "name": "",
          "type": "string"
        }
      ],
      "stateMutability": "pure",
      "type": "function"
    }
  ],
  "bytecode": "0x6080604052348015600f57600080fd5b5061023f8061001f6000396000f3fe608060405234801561001057600080fd5b50600436106100415760003560e01c8063a09c075414610046578063c09cec7714610064578063fb47e3a214610082575b600080fd5b61004e6100a0565b60405161005b91906101e7565b60405180910390f35b61006c6100dd565b60405161007991906101e7565b60405180910390f35b61008a61011a565b60405161009791906101e7565b60405180910390f35b60606040518060400160405280600881526020017f4265746865736461000000000000000000000000000000000000000000000000815250905090565b60606040518060400160405280600381526020017f426f620000000000000000000000000000000000000000000000000000000000815250905090565b60606040518060400160405280600581526020017f416c696365000000000000000000000000000000000000000000000000000000815250905090565b600081519050919050565b600082825260208201905092915050565b60005b83811015610191578082015181840152602081019050610176565b60008484015250505050565b6000601f19601f8301169050919050565b60006101b982610157565b6101c38185610162565b93506101d3818560208601610173565b6101dc8161019d565b840191505092915050565b6000602082019050818103600083015261020181846101ae565b90509291505056fea2646970667358221220deac2e99fea3fb51c8b53af158c7296c674878b4c9fccabc71fe238124fc59ed64736f6c63430008190033",
  "linkReferences": {},
  "deployedLinkReferences": {}
}