{
  "_format": "hh-sol-artifact-1",
  "contractName": "C",
  "sourceName": "contracts/Inheritance.sol",
  "abi": [
    {
      "inputs": [],
      "name": "alice",
      "outputs": [
        {
          "internalType": "string",
          "name": "",
          "type": "string"
        }
      ],
      "stateMutability": "pure",
      "type": "function"
    },
    {
      "inputs": [],
      "name": "bob",
      "outputs": [
        {
          "internalType": "string",
          "name": "",
          "type": "string"
        }
      ],
      "stateMutability": "pure",
      "type": "function"
    },
    {
      "inputs": [],
      "name": "charles",
      "outputs": [
        {
          "internalType": "string",
          "name": "",
          "type": "string"
        }
      ],
      "stateMutability": "pure",
      "type": "function"
    },
    {
      "inputs": [],
      "name": "olive",
      "outputs": [
        {
          "internalType": "string",
          "name": "",
          "type": "string"
        }
      ],
      "stateMutability": "pure",
      "type": "function"
    }
  ],
  "bytecode": "0x6080604052348015600f57600080fd5b506102a58061001f6000396000f3fe608060405234801561001057600080fd5b506004361061004c5760003560e01c8063067eab7b14610051578063a09c07541461006f578063c09cec771461008d578063fb47e3a2146100ab575b600080fd5b6100596100c9565b604051610066919061024d565b60405180910390f35b610077610106565b604051610084919061024d565b60405180910390f35b610095610143565b6040516100a2919061024d565b60405180910390f35b6100b3610180565b6040516100c0919061024d565b60405180910390f35b60606040518060400160405280600781526020017f436861726c657300000000000000000000000000000000000000000000000000815250905090565b60606040518060400160405280600581526020017f4a75646561000000000000000000000000000000000000000000000000000000815250905090565b60606040518060400160405280600381526020017f426f620000000000000000000000000000000000000000000000000000000000815250905090565b60606040518060400160405280600581526020017f416c696365000000000000000000000000000000000000000000000000000000815250905090565b600081519050919050565b600082825260208201905092915050565b60005b838110156101f75780820151818401526020810190506101dc565b60008484015250505050565b6000601f19601f8301169050919050565b600061021f826101bd565b61022981856101c8565b93506102398185602086016101d9565b61024281610203565b840191505092915050565b600060208201905081810360008301526102678184610214565b90509291505056fea264697066735822122050d1face966d44eb44b0c990a693f7cd06a7017be3e704983fb03af173042fdc64736f6c63430008190033",
  "linkReferences": {},
  "deployedLinkReferences": {}
}