{
  "_format": "hh-sol-artifact-1",
  "contractName": "D",
  "sourceName": "contracts/Inheritance.sol",
  "abi": [
    {
      "inputs": [],
      "name": "alice",
      "outputs": [
        {
          "internalType": "string",
          "name": "",
          "type": "string"
        }
      ],
      "stateMutability": "pure",
      "type": "function"
    },
    {
      "inputs": [],
      "name": "bob",
      "outputs": [
        {
          "internalType": "string",
          "name": "",
          "type": "string"
        }
      ],
      "stateMutability": "pure",
      "type": "function"
    },
    {
      "inputs": [],
      "name": "clove",
      "outputs": [
        {
          "internalType": "string",
          "name": "",
          "type": "string"
        },
        {
          "internalType": "string",
          "name": "",
          "type": "string"
        },
        {
          "internalType": "string",
          "name": "",
          "type": "string"
        }
      ],
      "stateMutability": "pure",
      "type": "function"
    },
    {
      "inputs": [],
      "name": "olive",
      "outputs": [
        {
          "internalType": "string",
          "name": "",
          "type": "string"
        }
      ],
      "stateMutability": "pure",
      "type": "function"
    }
  ],
  "bytecode": "0x6080604052348015600f57600080fd5b506102ed8061001f6000396000f3fe608060405234801561001057600080fd5b506004361061004c5760003560e01c80631435a85f14610051578063a09c075414610071578063c09cec771461008f578063fb47e3a2146100ad575b600080fd5b6100596100cb565b60405161006893929190610249565b60405180910390f35b6100796100f3565b6040516100869190610295565b60405180910390f35b610097610102565b6040516100a49190610295565b60405180910390f35b6100b561013f565b6040516100c29190610295565b60405180910390f35b60608060606100d861017c565b6100e061013f565b6100e8610102565b925092509250909192565b60606100fd61017c565b905090565b60606040518060400160405280600381526020017f426f620000000000000000000000000000000000000000000000000000000000815250905090565b60606040518060400160405280600581526020017f416c696365000000000000000000000000000000000000000000000000000000815250905090565b60606040518060400160405280600881526020017f4265746865736461000000000000000000000000000000000000000000000000815250905090565b600081519050919050565b600082825260208201905092915050565b60005b838110156101f35780820151818401526020810190506101d8565b60008484015250505050565b6000601f19601f8301169050919050565b600061021b826101b9565b61022581856101c4565b93506102358185602086016101d5565b61023e816101ff565b840191505092915050565b600060608201905081810360008301526102638186610210565b905081810360208301526102778185610210565b9050818103604083015261028b8184610210565b9050949350505050565b600060208201905081810360008301526102af8184610210565b90509291505056fea2646970667358221220ed346271165ebf5c4a30e115b0961c732f4e258ed01a0f82b49aac5c48adba5764736f6c63430008190033",
  "linkReferences": {},
  "deployedLinkReferences": {}
}